:100000000C94460A0C94620A0C94620A0C94620ADC
:100010000C94620A0C94620A0C94620A0C94620AB0
:100020000C94620A0C94620A0C94491A0C94620AA9
:100030000C94620A0C94620A0C94620A0C94620A90
:100040000C94620A0C94620A0C94620A0C94620A80
:100050000C94620A0C94620A0C94620A0C94620A70
:100060000C94660C0C94620A0C94620A0C94620A5A
:100070000C94620A0C94620A0C94620A0C94620A50
:100080000C94620A0C94620A0C94620A0C94620A40
:100090000C94620A0C94620A0C94620A0C94620A30
:1000A0000C94620A0C94620A0C94620A28034C00B5
:1000B00055004600410020004400750061006C00BE
:1000C00020004D0049004400490020004400650024
:1000D0006D006F00000018034400650061006E00B1
:1000E0002000430061006D006500720061000000A7
:1000F0000403090409028500020100C0320904005A
:1001000000000101000009240100010900010109AA
:100110000401000201030000072401000161000640
:100120002402010100062402010200062402020347
:100130000006240202040009240301050103010052
:100140000924030106010401000924030207010137
:10015000010009240302080102010009050102400F
:100160000005000006250102010209058202400087
:10017000050000062501020506120110010000001D
:1001800008EB036D200200010200010000000000E6
:10019000000000000000000000000000000000005F
:1001A000000000000000000000000000000000004F
:1001B000000000000000000000000000000000003F
:1001C000000000000000000000000100000000002E
:1001D000000000000000000000000001010101011A
:1001E0000101010101010101010102000000000003
:1001F00000000000000001010101010101010101F5
:1002000002020202020202020202030000000000D7
:1002100000000001010101010101010202020202CC
:1002200002020203030303030303040000000000AF
:1002300000000101010101010202020202020303A6
:100240000303030304040404040405000000000085
:100250000001010101010202020202030303030380
:10026000040404040405050505050600000000005B
:100270000101010102020202020303030304040458
:100280000404050505050606060607000000000132
:100290000101010202020203030303040404040532
:1002A0000505050606060607070708000000000109
:1002B000010102020202030303040404040505050C
:1002C00006060606070707080808090000000001DF
:1002D00001010202020303030404040505050606E6
:1002E000060707070808080909090A0000000101B4
:1002F00001020202030303040404050506060607BF
:1003000007070808080909090A0A0B00000001018B
:100310000102020303030404050505060606070798
:1003200008080809090A0A0A0B0B0C000000010161
:100330000202020303040405050506060707070871
:100340000809090A0A0A0B0B0C0C0D000000010138
:10035000020203030404040505060607070808094A
:1003600009090A0A0B0B0C0C0D0D0E00000001010F
:100370000202030304040505060607070808090925
:100380000A0A0B0B0C0C0D0D0E0E0F0000010102E2
:100390000203030404050506060707080809090AFD
:1003A0000A0B0B0C0C0D0D0E0E0F100000010102BC
:1003B00002030304040506060707080809090A0AD8
:1003C0000B0C0C0D0D0E0E0F0F1011000001010291
:1003D000020304040505060607080809090A0B0BB1
:1003E0000C0C0D0D0E0F0F10101112000001010268
:1003F0000303040405060607070809090A0B0B0C8A
:100400000C0D0E0E0F0F101111121300000101023E
:1004100003030405050607070809090A0A0B0C0C63
:100420000D0E0E0F10101112121314000001020213
:10043000030404050606070808090A0A0B0C0C0D3C
:100440000E0E0F10101112121314150000010202EB
:10045000030404050607070809090A0B0C0C0D0E16
:100460000E0F1011111213131415160000010202C1
:100470000304050506070808090A0B0B0C0D0E0EF0
:100480000F10111112131414151617000001020396
:1004900003040506060708090A0A0B0C0D0D0E0FCA
:1004A000101111121314141516171800000102036D
:1004B00004040506070808090A0B0C0C0D0E0F10A2
:1004C0001011121314141516171819000001020345
:1004D000040505060708090A0A0B0C0D0E0F0F107C
:1004E000111213141415161718191A00000102031B
:1004F000040506060708090A0B0C0D0D0E0F101156
:100500001213141415161718191A1B0000010203F0
:10051000040506070809090A0B0C0D0E0F1011122D
:1005200012131415161718191A1B1C0000010203C8
:100530000405060708090A0B0C0D0E0E0F10111208
:10054000131415161718191A1B1C1D00000102039D
:100550000405060708090A0B0C0D0E0F10111213E3
:100560001415161718191A1B1C1D1E00010203046E
:1005700005060708090A0B0C0D0E0F1011121314B3
:1005800015161718191A1B1C1D1E1F79430267FF29
:100590009D0010402333E2730050001241D35801F4
:1005A00010002363D40201100079432322F59E003A
:1005B00010002232FF720050002322FD660110005D
:1005C0001352F42801100079452342D65100400609
:1005D0001361D7220110003343DE2D002000135198
:1005E000DF2201200079452351FE6845130623A32D
:1005F000D30A4327002251C35C10170533A3D30A43
:10060000442300798323A3B36D3030012292B46F69
:100610000430001344A14D0420011371A8143110BB
:1006200000794553C4FB8C4470951282FF1241102F
:100630000013B0F1494410021372FF104110007909
:10064000462352E0010010240352F35300601803C4
:1006500013F6720070202372EF10031028794312F2
:1006600061FF6044102D1251F0744410003373F296
:100670006D4470202392F22041300079456356EF9B
:10068000560090124244DE180110006366EC5B00D5
:10069000B0284244EE1801100079473349F424444D
:1006A0007000233BFB3C4440002343F449442001B9
:1006B0003244FE1044100079452325508200200862
:1006C0003324F0050113002325A0700090081312B5
:1006D000F01801170079452244C25C41700023598B
:1006E000D61E5140002334C2785180003242DF1CB4
:1006F00031100079454347AFA100C0074254BF14F1
:100700000110006347BF840060005354DF140110E0
:100710000079456269FD620050025277FD0C0310BA
:10072000006366FA760050006276FE0203100079DC
:10073000453234F54130A0802233F21403100032E8
:1007400034F5413073472233F216032700794642CD
:100750004AEC1A00200B3233B5510030083233D046
:10076000280010004244C61803100079C202C4F0E9
:100770000230000002C5F00100102002C5D11E3079
:10078000314802C1F01E302020794702A5E10E5009
:1007900002040208D57400200002A5E1061313002C
:1007A00002A6E006032700798702DFF02570130414
:1007B00002AFB1155010A802EFF02413260002EF8B
:1007C000F0243307887947025F904E0030000227FB
:1007D000B274007000025F80120010000257801295
:1007E000000028798503587162002083036F50024E
:1007F000011000035C6329001028037F50010120D1
:100800000079850202815400368A02A2720901171A
:1008100000020F614800128802AF701E01230079A8
:1008200084029FF0B307E000028FF0A411A0000241
:100830008FF090031000028F600E012000790502F6
:100840000C703C30216402A2702A112100020F704A
:100850005010102B02AF702831108079851341E8B9
:10086000550010063273FF000110005355B43800D4
:1008700030084294DF3603100079441247F26A448C
:10088000902C1383F5B645D0001342F15E45100657
:100890002283DF1025100079431377F345451000BC
:1008A0001245F24B4550000272FF7D453000028236
:1008B000CF1045100079C5222AF13D001008229280
:1008C000FF0E0310002332F6410030204284E60E72
:1008D00003100079856378D7440000073299E70058
:1008E0000300003283E91300100033A4B3000310A7
:1008F0000079440328FF4C4407620211C13D4423A0
:100900000002A2B13C44100012A1B1284420007999
:1009100084022CB02100201C02A5C174001000022A
:10092000A5C15C00204002A1C53C0310307985823E
:1009300072F0590000453293DF180120408272B0F6
:10094000440000057277AF3405203079453383BA0F
:10095000390010033283CB000510003213911F00C1
:1009600010003283CA1405100079431332A1724477
:100970001006336494E844C0002333B25A44100094
:100980001381B20044200079432337F14E4410050F
:10099000436BC7544470002369F25E4420006382B5
:1009A000B60044100079432333C176451204336303
:1009B000A366451100236391664510002381B200B0
:1009C00045200079432337F23A4410036366F45418
:1009D0004490002369C262441000F382FF0C44106B
:1009E0000079432337F13A4410026275B24844D08B
:1009F000002369927A4410006382F618441000794B
:100A0000832286E5380010051284E69D00204012FE
:100A100082E68C0110002282E900071000794572FD
:100A200085F6504420067281FC014420007273F662
:100A3000504410067282FC01441000798503306036
:100A40004A1010620274620C01150073A5E01900CF
:100A5000403272776F0E03110079850330602600F3
:100A6000100A0276610C1310007376E02110103228
:100A700072776F0E03100079830266F04003100C4A
:100A8000F2E5FF504350000275F2B41310000273F8
:100A9000610613300079830026F064011006F0E649
:100AA000FF544350880046F36C133000007361021A
:100AB00001200079C50332715A1012A30263610844
:100AC000332000034370590014630263610853101C
:100AD00000798552BBF9500010078277E224071095
:100AE000006257FF450010405266CF24071000797E
:100AF000435288F4A40020067298B4840050003257
:100B000027B4860010052324F110441000794343D4
:100B100038F3114410032322FF844407003337F0D5
:100B2000724410003334FF004400407987006A505B
:100B30002E30113A0066C1600020200066611E035D
:100B40001500006561143323607987025A60001034
:100B5000134B0256C15C3010100266500205150896
:100B60000265511C0317D879850228916C10160074
:100B7000025F701C031300032B9050101320024FD0
:100B8000600113170079850228914C10104D025610
:100B90006018031000022880281010D80247530163
:100BA00013100079450200CF4C00603D0253665E91
:100BB000034000023F7079001040025F50000320A4
:100BC0000079850300CF5030503F025376520340E6
:100BD000000247736A10105002519000051000790E
:100BE000850240AF58001000025F7122031000021E
:100BF0004F9069101048025F7002133000798743EC
:100C000064F6003040453235C1000010306267C0E4
:100C1000000310307267B00003003079430258813E
:100C20005001100E0258A45E0130000267716A0084
:100C30001000028F90181110007943027671700134
:100C400010470258943E0110000277616A011008B3
:100C5000028F8014031000794302656288011047F7
:100C600002B8C46201100802979346011008028F6F
:100C70007000032000794502707568103050029DA5
:100C800094000100100269714C1150880297820093
:100C9000011010794502097043001240027E90064F
:100CA0000117000229615A301604027EA0060113C2
:100CB00040794502268158441706028F902040173C
:100CC00000025771584110660288901C411000794B
:100CD000450286724044170602AF9028441700026E
:100CE00086724041100602A8902841100079430204
:100CF0004361700110060257979C01600832357BF2
:100D00008C011040027FF01003100079436369F3F7
:100D100074103000026280680010000205803110FB
:100D200010080286810C03100079450303902A44C1
:100D3000100C029280244110000303903644104CA2
:100D40000292905441100879450303701644100B29
:100D50000292703C4310400303702244104B0292F5
:100D6000703643100079450353704A001006038221
:100D700072180320000315703910201003847114B9
:100D800005100079850240A07A0310281291902462
:100D90000330000240B26023100002A0A0380320FC
:100DA0000079450240A08A0310281291912C03304B
:100DB000000240B26023100012A0A12C0320007991
:100DC000850307C1620010080381710211304803D6
:100DD00007C1620010080381710C11314879450385
:100DE0001271961120070282810C1110000312511A
:100DF000691140000282710C0010007985027CA10B
:100E00003000501702879F9C1310000275817810E4
:100E1000100802A580180110007945021AD11C1093
:100E2000300702B873940130000298E09C3110073B
:100E300002A56004111080798572A690E835201F04
:100E400002A580101510406269A93C0170C002A57E
:100E5000809035100079850260A00120D00712AA89
:100E6000B08C21A018024F80B01520000290801491
:100E70002510007945037CC1300050570297766CED
:100E80000110000288732F30204002857004051085
:100E9000007945025CA1180050170297655C31107B
:100EA000400238A3095000900295600405100079B3
:100EB00042026A60141510000278801455100092E6
:100EC0007A60B055108802786014551740798572A1
:100ED0008680F115201F029580000510006269A927
:100EE0003C0110C002A570681510407985027FF49E
:100EF000BB00104002AFA00E031040022FF39B1066
:100F0000204102AFA00E01104079450270F0684107
:100F10001707027FD028411740023FF0514110A728
:100F2000028FE02841104079850274C800304047A4
:100F30000266C7515440400256850D0120000284CC
:100F40006108301080794502277611151440028619
:100F5000F02C1510400227760D1511400286F02C5A
:100F60001512407945026292224514080281923896
:100F70001520600262922A451108028192381521DB
:100F800060794502004F340070300283764C0120B6
:100F900000029F7071301040028F700803100079BA
:100FA000471281C1544510C01261C23C4511000274
:100FB00080C0684524001281C118453180794502FE
:100FC00032B0580010080292A0440310804243C57A
:100FD0002E0010050293D6300010007945313FF005
:100FE0009844700D4047F02E445000001160620399
:100FF000170E0051810203100079450250A0A00194
:101000001107024030080510000230A0BC01130790
:10101000024030080512007945004561880517181F
:101020000065A10A052600003361880510DC005325
:10103000900205124079450000AF844517420073C5
:10104000435A05800000337085051006005F60007C
:101050000523007945023124AA1570040252630069
:10106000111000023124AA157104025263001112FA
:101070000079450332F05E0010560246500E01150D
:10108000000336F31D0010020247501103110079CE
:1010900045003141944415060052600201170000DA
:1010A00045C17844130500528002031000794502BF
:1010B0003840781015000248300203130002413016
:1010C0008A0022000252700203170079450368F873
:1010D0000B55A001132580007510800368F80B459F
:1010E000A2011325800055138079850233634A10CD
:1010F0003003024240250130000233634000108576
:101100000241410E03100079451258F45145600523
:101110002242C7244410001258F45145E2052242ED
:10112000C724441200798522436F550010A402435E
:10113000F3000310000243CF410023A45246933032
:1011400003270079421241F51E1513585242FF1C25
:101150001513481241F51E1511585242FF1C151166
:101160004879450011124A47376C0041212610305A
:1011700000002120504510040031300E4514007944
:10118000850203458800200002C2A03A0310000235
:1011900023328C301080023FA000031000794502FA
:1011A00033586511200A1241621811172002335872
:1011B0006511230A1241621811132079453222D594
:1011C0002A4520036242FF204570483222D50E474F
:1011D00011446242FF2045418879852313D12800BC
:1011E00010203353DE020330004227F13C01600837
:1011F0008287FE0203100879431031F268441044DC
:10120000506AF7504530003038F360445080414414
:10121000FF0445304079435057F2520030468089F0
:10122000F4560050802032FFA80010052122FF0C48
:101230004410007945526AFA214543263252C020B3
:101240004510005268FA394552064342C020451401
:1012500000794500C9B14244104900DF702C443187
:10126000400099A30044100000D68028444008792B
:10127000850339811E00100A027662004110007356
:1012800076C02500202072839E66051000794502F5
:1012900040A042031028129190340360000240B233
:1012A0006023100002A0A03C03200079453046F5E1
:1012B0004144E0037066CE2E4420002026C57844C9
:1012C00077084055FD045460007945404AE25C448B
:1012D00070016067F1204450006049E28444A70037
:1012E0006067F7104420007947435442004520804E
:1012F000324660584520004344E2004520054344FF
:10130000F2000003107945919AF286445105717AF2
:10131000F200442300A08AF27044A300707AF20025
:101320004420007944423BF560000027A23CF14C88
:10133000004000423CF42C013000525EF0000500F9
:101340000079458289F53A4410275253FE00440043
:10135000004343F5324400084344FE004400007952
:10136000C581ABE2000407620143CF001400000016
:1013700044F7004400C00077FF004500B079450203
:101380000F400045E007F2FF2F18259040020F4064
:101390000045E007F2FF2F1845E01879454268F252
:1013A0000245604742A6883E4530102266F200455D
:1013B000605182A888024560107945025CA138001E
:1013C000501782987F14111000025CA1240080073E
:1013D00072988F301110007903020FF0100030075F
:1013E0002222FF541000204240FF300000084242F9
:1013F0001F00000000798533373A56555000737648
:10140000530155A00033373A565550004346530117
:1014100075A70079450302B6714550153334F10CB8
:101420004540000302B6714550153334F13C454741
:101430000079C50206F00455F075025020105500E1
:10144000000200F0604400700250202C440000793B
:1014500045021CF0000000C70252402000000002BC
:10146000106F003090C772703F1C00300079450249
:1014700003FF2C0150078286FB1011F0300202FF9F
:101480000811500F8286FB681150300011241FBED6
:10149000CFEFDAE0DEBFCDBF11E0A0E0B1E0EEE5D6
:1014A000F9E302C005900D92AC3AB107D9F727E0F5
:1014B000ACEAB1E001C01D92A031B207E1F743D51B
:1014C0000C94AD1C0C940000683CCE43E041EE400F
:1014D00076403B401D400E40074003400140043928
:1014E000D647CE43E041EE4076403B401D400E40A3
:1014F00007400340D1351B4CCA45D5426641B24036
:1015000058402C4016400B400540CB32A250D647E5
:10151000CE43E041EE4076403B401D400E40074048
:10152000F22F6E55F149CA445A422A4194404A402A
:10153000254012400940412D825A1B4CCA45D542D4
:101540006641B24058402C4016400B40B72AE45F39
:10155000564ECE465143A341D040674033401940D8
:101560000C4051289765A250D647CE43E041EE404B
:1015700076403B401D400E400D26A26BFF52E148D5
:101580004C441D420C418540424021401040EB2319
:1015900008726E55F149CA445A422A4194404A4061
:1015A00025401240E721D078EE57044B4A45974238
:1015B0004841A34051402840144000200080825AF6
:1015C0001B4CCA45D5426641B24058402C4016409B
:1015D000341E9C87295D374D4C4613438541C140DD
:1015E000604030401840821CAC8FE45F564ECE46BF
:1015F0005143A341D040674033401940E81A37981F
:10160000B3627A4F52478F43C141DF406F4037404A
:101610001B40651945A19765A250D647CE43E041CE
:10162000EE4076403B401D40F917DCAA9268CE514F
:101630005B480D44FE41FD407E403E401F40A016E9
:1016400004B5A26BFF52E1484C441D420C41854059
:10165000424021405B15C8BFC96E345469498B4470
:101660003B421B418D404640234028142FCB08723B
:101670006E55F149CA445A422A4194404A40254095
:10168000061344D76075AC567A4A0A457842394108
:101690009C404D402640F51111E4D078EE57044BA4
:1016A0004A4597424841A34051402840F310A1F1D8
:1016B0005B7C36598F4B8A45B6425741AA4055400C
:1016C0002A400010FFFF0080825A1B4CCA45D542B9
:1016D0006641B2402C4058401F921F931127662349
:1016E00019F480E090E4EFC06A9576E1679FF0011D
:1016F000E853FB4EA591B5916591759195FF13C087
:10170000A69F9001B79FA001A79F300D411D511FBB
:10171000B69F300D411D511F330F441F551F330F0E
:10172000441F551FDA016591759194FF13C0A69F60
:101730009001B79FA001A79F300D411D511FB69F7B
:10174000300D411D511F330F441F551F330F441FD0
:10175000551FDA016591759193FF13C0A69F900103
:10176000B79FA001A79F300D411D511FB69F300D9F
:10177000411D511F330F441F551F330F441F551F69
:10178000DA016591759192FF13C0A69F9001B79FF2
:10179000A001A79F300D411D511FB69F300D411D67
:1017A000511F330F441F551F330F441F551FDA01BC
:1017B0006591759191FF13C0A69F9001B79FA001FD
:1017C000A79F300D411D511FB69F300D411D511F68
:1017D000330F441F551F330F441F551FDA01659106
:1017E000759190FF13C0A69F9001B79FA001A79F7E
:1017F000300D411D511FB69F300D411D511F330F3C
:10180000441F551F330F441F551FDA016591759111
:1018100087FF13C0A69F9001B79FA001A79F300D1F
:10182000411D511FB69F300D411D511F330F441FE5
:10183000551F330F441F551FDA016591759186FFBF
:1018400013C0A69F9001B79FA001A79F300D411D17
:10185000511FB69F300D411D511F330F441F551F9F
:10186000330F441F551FDA016591759185FF13C031
:10187000A69F9001B79FA001A79F300D411D511F4A
:10188000B69F300D411D511F330F441F551F330F9D
:10189000441F551FDA016591759184FF13C0A69FFF
:1018A0009001B79FA001A79F300D411D511FB69F0A
:1018B000300D411D511F330F441F551F330F441F5F
:1018C000551FDA01CD011F911F900895F8940F92D2
:1018D0000FB60F928F93EF93FF9380910201815087
:1018E00080930201882391F080FF19C0E0910101EB
:1018F000F2E080818EBDE395E0930101FF91EF91CD
:101900008F910F900FBE0F9078941895289AFF91A1
:10191000EF918F910F900FBE0F9078941895289AA1
:10192000E09101012898F2E080818EBDE395E0937B
:101930000101FF91EF918F910F900FBE0F9078945E
:101940001895F89490910201E091000191110CC05A
:10195000F2E06083E395E093000192E0909302014E
:1019600028988EBD78940895F2E08083E395608393
:10197000E395E09300019E5F9093020178940895AF
:10198000809102018823E1F70895292F332722301F
:10199000310559F02330310569F02130310529F145
:1019A00080E090E020E030E029C085E890E024EF7E
:1019B00030E024C099278130910559F0823091059B
:1019C00071F0892BB9F4E0EFF0E0849190E09F0191
:1019D00015C0E6EDF0E0849190E09F010FC0ECEAC5
:1019E000F0E0849190E09F0109C082E190E029E756
:1019F00031E004C080E090E020E030E0FA01318383
:101A000020830895CF93DF93D82FC62F60E08BE01B
:101A100098DF64E58CE095DF6D2F8DE092DF6C2F11
:101A20008EE08FDF60E48FE08CDFDF91CF9108954F
:101A300060E08FE086CF08950895089583E091E0F7
:101A40000E947616E2EEF0E0808184608083089543
:101A500008950895EF92FF921F93CF93DF934EE383
:101A600053E02FE435E0CEE2D3E0AFE4B3E00F2E55
:101A7000FFE3EF2EF5E0FF2EF02D80E090E06FE722
:101A800013E070EEFA016193AF01F90161939F01D8
:101A900019921D93F70171937F0101968031910591
:101AA00089F7D0D580E180934E03DF91CF911F91CC
:101AB000FF90EF900895CF92DF92EF92FF920F93F5
:101AC0001F93CF93DF93469A2FEF81EE94E021503E
:101AD00080409040E1F700C0000046988FE39CE909
:101AE0000197F1F700C00000469A289A289A9FEFC4
:101AF000E1EE24E09150E0402040E1F700C000001A
:101B000060E08DE11EDF6EE082E01BDF8FE99FE089
:101B10000197F1F700C0000061E080E012DF60E0B3
:101B200081E00FDF63EA8AE10CDF8FE99FE0019734
:101B3000F1F700C0000060E08AE103DF9FEFE6E715
:101B400021E09150E0402040E1F700C0000060E05B
:101B500082E0F7DE6CEC89E1F4DE6FE38BE1F1DE2D
:101B600060E08BE1EEDE60E084E1EBDE61E083E0EB
:101B7000E8DE66EF88E0E5DE03DF8FE796E0E1E090
:101B800081509040E040E1F700C0000060E088E054
:101B9000D8DE68EF89E0D5DE60E08AE0D2DE60E47E
:101BA00087E1CFDE60E088E1CCDE6FE080E2C9DE75
:101BB000E7DE25E32A95F1F700006FE081E2C1DE60
:101BC000DFDE85E38A95F1F700006FE082E2B9DE9F
:101BD000D7DE95E39A95F1F7000080E090E071E0A0
:101BE0000F2EF3E8CF2EF02D6FE70F2EF4EFDF2E40
:101BF000F02D0F2EFBEBEF2EF02D30E120E40F2E19
:101C0000FFEAFF2EF02D50EA4EE003E01FE2D3EF93
:101C1000CBE9B0E2A1E4FC01E15AFC4F7083C18240
:101C200012826383D482E5821682378320871186ED
:101C3000F28653874487058736872787108A118B5A
:101C4000D28BC38B148AB58BA68B178A608F518F6A
:101C5000428F738F348F258F4E96803EE1E09E0732
:101C6000D1F6C8D42FEF80E792E021508040904019
:101C7000E1F700C0000061E18CE1C4DEEFEF26E790
:101C800081E0E15020408040E1F700C00000D0DE5C
:101C90008FE39CE90197F1F700C0000062E48CE15A
:101CA000B1DE9FEFE6E721E09150E0402040E1F710
:101CB00000C00000BDDE8FE39CE90197F1F700C092
:101CC00000006DE58CE19EDE9FEFE6E721E091509C
:101CD000E0402040E1F700C00000AADE8FE39CE96D
:101CE0000197F1F700C0000067E184E28BDE9FEF0F
:101CF000E6E721E09150E0402040E1F700C000001D
:101D000097DE8FE39CE90197F1F700C00000DF91B7
:101D1000CF911F910F91FF90EF90DF90CF9008959A
:101D200080ED8CBD81E08DBD8EB5089584B7877F31
:101D300084BF88E10FB6F894809360001092600031
:101D40000FBE90E080E80FB6F89480936100909306
:101D500061000FBEE1E6F0E0808310820E942B1A42
:101D60002FEF80E792E0215080409040E1F700C0E3
:101D70000000D6DF2FE786E798E1215080409040B1
:101D8000E1F700C0000097DE2FEF81EE94E02150D4
:101D900080409040E1F700C000005CCE0895CF92F3
:101DA000DF92EF92FF920F931F93CF93DF9300D0B8
:101DB00000D0CDB7DEB780910003882309F4B6C008
:101DC0008EE18093000380910403909105039C01B0
:101DD0002F5F3F4F30930503209304030E94971C0D
:101DE00094E1998390EF9A83982F92959F709B83AB
:101DF0008F708C838DE180930003BE016F5F7F4FF6
:101E000083E091E087D70F2EF3E1CF2EF02D0091E4
:101E100004031091050378018FEFE81AF80AF09295
:101E20000503E0920403C8010E94971CD82E0E5FA0
:101E30001F4F1093050300930403C7010E94971CD2
:101E4000182FC9828D2D82958F708A838D2D8F706A
:101E50008B83812F82958F708C83BE016F5F7F4F44
:101E600083E091E057D78091040390910503AC0182
:101E70004F5F5F4F50930503409304030E94971CEC
:101E8000C9821F701A83982F92959F709B838F70C1
:101E90008C83BE016F5F7F4F83E091E03BD78091E1
:101EA0000003835080930003833008F0B0CF10927A
:101EB0000003009104031091050378018FEFE81AE5
:101EC000F80AF0920503E0920403C8010E94971CEF
:101ED000D82E0E5F1F4F1093050300930403C70114
:101EE0000E94971C182F83E189838D2D82958F7016
:101EF0008A838D2D8F708B83812F82958F708C8339
:101F0000BE016F5F7F4F83E091E004D787E1898353
:101F10001F701A831B8287EF8C83BE016F5F7F4F18
:101F200083E091E0F7D683E091E015D70F900F9012
:101F30000F900F90DF91CF911F910F91FF90EF9035
:101F4000DF90CF900895CF93DF9300D000D0CDB72E
:101F5000DEB787EF84B98FEF87B99BEF9AB980BB63
:101F6000E5DE78940F2EFFE3CF2EF5E0DF2EF02D87
:101F70000F2EFFE4EF2EF3E0FF2EF02D0F2EF9E0F1
:101F80006F2EF3E07F2EF02D0F2EFAE04F2EF3E0B0
:101F90005F2EF02D0F2EFBE02F2EF3E03F2EF02DC5
:101FA00014C389818431C9F42A81203F21F410921D
:101FB0000103109202038091010390910203FC013E
:101FC000EA5FFC4F20832B812183039690930203C9
:101FD000809301038C818283D8C0833199F48091EE
:101FE000010390910203FC01EA5FFC4F2A812083E8
:101FF0002B812183039690930203809301038C81AC
:102000008283C3C08551833008F0BFC08091010333
:1020100090910203FC01EA5FFC4F2A8120832B810F
:102020002183039690930203809301038C81828322
:10203000A7E0B3E03C91E8E0F3E01081D3016C91BC
:10204000F2018081F101B081ECE0F3E05081EDE03C
:10205000F3E04081EEE0F3E0A081E6E0F3E0908180
:10206000903F09F092C0F0E16F9FB0011124E82F7A
:10207000EF70E62B20E1B29FC00111245F70852B29
:1020800090E1499FA00111246A2F6F70642BA0E199
:102090003A9F90011124F12FFF702F2B253009F466
:1020A00045C030F42130D9F090F02230E9F06DC015
:1020B000293009F454C020F4263009F444C065C026
:1020C0002A3009F44EC02B3009F456C05EC06111AD
:1020D0005CC0F1DC81E080930303B4D256C0E230EF
:1020E00009F053C02EDC51C0E11105C010920F0160
:1020F000B1DCA8D24AC0E13071F481E080930F01D5
:10210000EFE5F5E080E080838F5F70968031D9F74E
:10211000A1DC98D23AC0E330C1F583E080930F018F
:1021200088E08093100196DC8DD22FC0B0E2EB9F47
:1021300090011124F901E80FF11DCF01F999FECFAB
:102140000E949F1C22C08EE180930003F0E2EF9F6B
:10215000C0011124909305038093040316C04AD252
:1021600014C02EE1E29FF0011124E80FF11DE15AA5
:10217000FC4F60833FD209C03EE1E39FF001112490
:10218000E80FF11DE15AFC4F60838981893009F025
:1021900067C01A811F70A12EB12C8B809C8091107A
:1021A00004C0682DC50177D45BC080910F018130D8
:1021B000C1F4492D682D812F27D38F3F910509F454
:1021C0004FC0D501A295B295B07FBA27A07FBA279C
:1021D000A15ABA4F0C91292D482D682F812F91D3E8
:1021E0003FC0833071F5492D682D812F0DD38F3F6E
:1021F000910579F0D501A295B295B07FBA27A07F5D
:10220000BA27A15ABA4F0C91292D482D682F812F3A
:1022100078D3185F492D682D812FF6D28F3F910515
:10222000F9F0F501E295F295F07FFE27E07FFE27B9
:10223000E152FA4F0081292D482D682F812F61D35B
:102240000FC0F501E295F295F07FFE27E07FFE27B3
:10225000E15AFA4F0081292D482D612F812F51D34A
:102260008981883029F48A818F706B8190E013D442
:102270008981843081F48A81803F09F07CC0A6E0A6
:10228000B3E08C938B81E7E0F3E080838C81A8E05E
:10229000B3E08C9370C09BEF980F933048F49A8111
:1022A000F30190839B81D2019C939C81F1019083E7
:1022B0008C3009F060C05A815F70852F90E02B81CF
:1022C00030910303313021F5FC01E295F295F07F66
:1022D000FE27E07FFE27E15AFA4F50834EE1429FEE
:1022E00090011124489FD001499FB00D1124A15A9B
:1022F000BC4F80E090E025573A4FF901E80FF91FF5
:10230000E491ED9301968E319105B9F773D133C005
:10231000323031F52F71F0E22F9FA00111246EE1D0
:10232000689F9001699F300D11248901015A1C4F4B
:102330000F2EFEE19F2EF02DCA018F5593405C01B8
:10234000A21AB30AF999FECFC501800F911F0E940E
:10235000971CD8018D938D019A94A1F74BD10BC096
:10236000FC01E295F295F07FFE27E07FFE27E15A1F
:10237000FA4F2F70208389818E3001F58A818F700A
:10238000082F10E04B816C8190910F01913029F45E
:1023900050E070E0C801D3D311C0933071F4842EA3
:1023A000912CA62EB12CA401B501C801C8D3A4015B
:1023B000B501C8010896C3D301C05CD489818B30B4
:1023C00009F003C14A81642F6F70062F10E02B8142
:1023D0003C81253629F4F801E25CFC4F308320C0B3
:1023E000243629F4F801E15BFA4F308326C0263009
:1023F000B9F4F801E25CFC4F808181112FC0F80133
:10240000E15BFA4F8081811129C0F801E295F295D4
:10241000F07FFE27E07FFE27E15AFA4F30871EC08B
:102420002C3359F490914E03992349F1F7013193DC
:102430008E2F8E198917D8F322C02D3379F49091FD
:102440004E03992381F1532F5295550F507EF6017B
:1024500051938E2F8C198917D8F325C02F3179F419
:10246000F801E15BFC4F308380910F01813009F06E
:102470003BC0F801E15BFC4F3183328335C0203231
:1024800091F4B0E23B9FC0011124F801E15CFA4FE6
:10249000808350910F01513089F5F801E15CFA4FCA
:1024A000818382832BC02130F9F4A32EA694A694B5
:1024B000A694A69480910F01813029F46A2D70E0D2
:1024C000C80116D382C0833049F4B12CB501C801CC
:1024D0000FD3B501C80108960BD377C08BE031DA72
:1024E0006A2D81E12EDA71C0203441F4303418F4C1
:1024F000C80191D26AC0C80161D167C02A3009F40D
:1025000064C0273099F5369536953695F801E295F1
:10251000F295F07FFE27E07FFE27E15AFA4F3583E0
:10252000E681F0E020E2329FE00DF11D1124E55735
:10253000FE4FA490AA0CAA0C80910F01813029F4BF
:102540006A2D70E0C80148D340C0833049F4B12CF3
:10255000B501C80141D3B501C80108963DD335C0C6
:102560008BE0EFD96A2D80E1ECD92FC0211104C096
:1025700033703093030329C02B3039F536953695E7
:10258000F801E295F295F07FFE27E07FFE27E15A01
:10259000FA4F3683E581F0E040E2349FE00DF11D13
:1025A0001124E557FE4FE491BE2EBB0CBB0C80916D
:1025B0000F01813029F46B2D70E0C80134D305C0C0
:1025C0008BE0BFD96B2D80E1BCD9BE016F5F7F4F1F
:1025D00083E091E0EAD38111E4CCE1DB83E091E098
:1025E000D6D30E947C1CF1CF8EBD0DB407FEFDCF6B
:1025F0008EB50895CF93DF9366E170E088E090E0B8
:10260000A0D960E070E088E090E09BD9B9D9289823
:10261000F89487E0E9DF80E9E7DFCFE5D3E089914F
:10262000E3DF85E0CF33D807D1F780E8DDDF83E053
:10263000DBDF81E8D9DF80E8D7DF289A7894DF9163
:10264000CF910895CF93DF931092EF061092020777
:102650001092F1061092F006E3E6F6E02FED36E078
:1026600083EE96E0D9017FE76FEF50E24A2F421BDD
:10267000EF012497488321964883229678832197F7
:1026800068835083138212824D933896E817F907B6
:1026900069F7AFE5B5E0ECE6F5E020E080E090E436
:1026A00039E16CE050E348E02C93EF012C9718825D
:1026B00013969C938E9312972396188221963883B3
:1026C000219638832196188221966883128211827E
:1026D00022965883219618822196488310822F5F74
:1026E00050967096203101F7DF91CF910895CF93E6
:1026F000DF9390E0FC01E295F295F07FFE27E07F0A
:10270000FE27E15AFA4FA685B785109709F451C004
:1027100012962C911297261343C0EC01C295D295C4
:10272000D07FDC27C07FDC27C359DA4FFD0107C00B
:102730002281261711F0DF0133C0ED012696DC015E
:10274000A295B295B07FBA27A07FBA27A15ABA4FF7
:1027500011968C91813021F485838FEF90E02BC00E
:102760004081842F90E02681378139832883E0914E
:10277000020721E02E0F20930207F0E0E152F94F0B
:102780004083203111F4109202072091F00630911D
:10279000F106215031093093F1062093F0060BC069
:1027A0001696ED91FC911797309711F68FEF90E008
:1027B00002C08FEF90E0DF91CF91089582959295BE
:1027C000907F9827807F9827FC01E15AFA4F81E09B
:1027D00081830895CF93DF93C82FD0E0BE018BE0B3
:1027E00090E0AFD8CC0FDD1FCC0FDD1FCC0FDD1F6D
:1027F000C15AD94F698170E0605E7F4F8FE090E0F1
:10280000A0D8DF91CF910895DF92EF92FF920F93BE
:102810001F93CF93DF93E82EF62ED42E082F10E0CF
:10282000F801E295F295F07FFE27E07FFE27E15A5E
:10283000FA4F0684F785E02D3097A9F08281861340
:102840000DC003C082818F1109C0C081D0E0CE01CC
:10285000C1DFCF3FD10509F047C005C00680F78131
:10286000E02D309779F72091F0063091F106203174
:102870003105E9F1E091EF0681E08E0F8093EF06DC
:10288000F0E0E152F94F408150E0803111F41092B4
:10289000EF062F5F3F4F3093F1062093F006FA01C9
:1028A000EE0FFF1FEE0FFF1FEE0FFF1FE15AF94F54
:1028B000D801A295B295B07FBA27A07FBA27A15AB6
:1028C000BA4F8C918183F282E382D4821E968D91DD
:1028D0009C911F979783868315821F96FC93EE9396
:1028E0001E97842F952F05C08C2F9D2F02C08FEF30
:1028F00090E0DF91CF911F910F91FF90EF90DF90CB
:102900000895EF92FF920F931F93CF93DF93C82FF9
:10291000D42F122F70E0DB01AE50B94F4C938BE0F7
:1029200090E00FD81C77612F70E08CE090E009D820
:10293000DF5FED2FF0E0E55DFE4F8081E82FEF7067
:10294000F0E0EE0FFF1FEF5EFE4FE080F180B70179
:10295000729562956F7067277F7067276873772716
:1029600082958F708770682B8DE090E00E94A10C9B
:10297000B7016F7777278EE090E00E94A10C80E18D
:10298000C89FE0011124C15ADA4F6A8570E080E1E6
:1029900090E00E94A10C6B8570E081E190E00E94C4
:1029A000A10C6C8570E082E190E00E94A10C6D8525
:1029B00070E083E190E00E94A10C60E070E084E1AF
:1029C00090E00E94A10C0064602F70E08FE090E026
:1029D0000E94A10CDF91CF911F910F91FF90EF907A
:1029E0000895CF93DF93C82FD0E0BE018BE090E035
:1029F0000E94A10CCC0FDD1FCC0FDD1FCC0FDD1F03
:102A0000C15AD94F698170E08FE090E00E94A10C1B
:102A1000DF91CF9108951F93CF93DF938295929585
:102A2000907F9827807F9827FC01E15AFA4F118206
:102A3000EC01C359DA4F27C08581813011F510812F
:102A4000812F90E0CEDFE881F9818681978199839B
:102A50008883E091020781E08E0F80930207F0E007
:102A6000E152F94F1083803111F4109202078091E6
:102A7000F0069091F10601979093F1068093F0068D
:102A800002C0EF012696E881F9813097A9F6DF911F
:102A9000CF911F9108951F93CF93DF93EC01162FD1
:102AA00080910F01813039F48C2F21DE8F3F910509
:102AB000D9F097DF19C0833079F48C2F18DE8F3F5F
:102AC000910509F08EDF612F8C2F885F10DE8F3F1C
:102AD000910551F086DF08C0FE01EE50F94F80816C
:102AE000861302C08C2F7DDFDF91CF911F91089557
:102AF0000F931F93CF93DF9320E1829FC001112496
:102B0000FC01E15AFA4F6387C685D785209791F07B
:102B1000062F10E0688170E08BE090E00E94A10C2D
:102B2000B80181E190E00E94A10C0E80DF81C02DF0
:102B3000209781F7DF91CF911F910F910895EF9228
:102B4000FF920F931F93CF93DF9350E8659F9001FF
:102B5000112450E1859FC0011124EC01C15ADA4FC4
:102B6000688570E0C901842B0E946C0B292F269583
:102B700026952695E22EF12C8C0115950795159535
:102B8000079515950795159507950F7711272C87AC
:102B90000D870E84DF85C02D2097B9F08881682FBE
:102BA00070E08BE090E00E94A10C6E2D7F2D82E101
:102BB00090E00E94A10CB80183E190E00E94A10C7A
:102BC0000E80DF81C02D209749F7DF91CF911F91B3
:102BD0000F91FF90EF9008950F931F93CF93DF9382
:102BE00020E1829FC0011124FC01E15AFA4F628763
:102BF000C685D785209791F0062F10E0688170E098
:102C00008BE090E00E94A10CB80180E190E00E946E
:102C1000A10C0E80DF81C02D209781F7DF91CF912D
:102C20001F910F9108950F931F93CF93DF9320E18E
:102C3000829FC0011124FC01E15AFA4F6287C685C8
:102C4000D785209791F0062F10E0688170E08BE027
:102C500090E00E94A10CB80180E190E00E94A10CDC
:102C60000E80DF81C02D209781F7DF91CF911F91DA
:102C70000F9108950F931F93CF93DF9390E8699F6F
:102C800090011124082F10E0F801E295F295F07FF1
:102C9000FE27E07FFE27E15AFA4F608570E0C90108
:102CA000842B0E946C0BEC01B8018BE090E00E9439
:102CB000A10C6D2F66956695669570E082E190E0B7
:102CC0000E94A10CBE0175956795759567957595E0
:102CD0006795759567956F77772783E190E00E94F8
:102CE000A10CDF91CF911F910F910895CF93DF93A6
:102CF000EC011B8682E08C83898761E0CE0101961E
:102D0000A7D2882321F061E0CE010696A1D2DF91FF
:102D1000CF9108959B01409107074430C1F4FC0115
:102D200081818F708093E90040E050E064E070E0C2
:102D3000C90166D081110EC08091E80085FD09C0EF
:102D4000E8EEF0E080818E77808380E0089582E075
:102D5000089580E00895209107072430A1F4FC0134
:102D600081818F708093E9002091F3008091F200BF
:102D700090E0922B892B49F0E8EEF0E080818E778D
:102D80008083E7C2089582E0089580E0089520914D
:102D90000707243049F4FC0121812F702093E900BA
:102DA0002091E80020FDD7CF08959B0140910707AF
:102DB0004430F1F4FC0186818F708093E9008091AA
:102DC000E80082FF17C08091E80085FF15C040E051
:102DD00050E064E070E0C90170D08091E80085FDAA
:102DE0000DC0E8EEF0E080818B77808381E008956C
:102DF00080E0089580E0089580E0089581E00895DE
:102E00008F929F92AF92BF92CF92DF92EF92FF92FA
:102E10000F931F93CF93DF937C01EB015A0199D25B
:102E200081113EC0A114B10439F0F5018081918176
:102E3000C81BD90BE80EF91E209779F100E010E0CD
:102E40000F2EF8EE8F2E912CF02D0F2EF1EFCF2EAE
:102E5000D12CF02DF401808185FD14C080818E7706
:102E600080834AD5A114B10449F0F5018081918194
:102E7000080F191F1183008385E012C06AD28823CE
:102E800049F00EC0F70181917F01F60180832197FF
:102E90000F5F1F4F2097F1F602C080E001C080E075
:102EA000DF91CF911F910F91FF90EF90DF90CF9026
:102EB000BF90AF909F908F9008958F929F92AF9206
:102EC000BF92CF92DF92EF92FF920F931F93CF9317
:102ED000DF937C01EB015A013CD281113EC0A11469
:102EE000B10439F0F50180819181C81BD90BE80E3E
:102EF000F91E209779F100E010E00F2EF8EE8F2EEA
:102F0000912CF02D0F2EF1EFCF2ED12CF02DF401BE
:102F1000808185FD14C080818B778083EDD4A114DE
:102F2000B10449F0F50180819181080F191F1183C7
:102F3000008385E012C00DD2882349F00EC0F6014F
:102F40008081F70181937F0121970F5F1F4F2097A9
:102F5000F1F602C080E001C080E0DF91CF911F91C7
:102F60000F91FF90EF90DF90CF90BF90AF909F9028
:102F70008F900895DF92EF92FF920F931F93CF935C
:102F8000DF9320910E0730910F072617370758F06F
:102F90006115710539F4E8EEF0E020812E77208389
:102FA0009B0101C09B01A0E0E8EEF0E003EF10E020
:102FB00062EF70E0C1EFD0E0FF24F394E12C38C061
:102FC00040910707442309F447C0453009F446C03F
:102FD000408143FD45C0408142FF03C0E8EEF0E080
:102FE00036C0408140FF24C0D801DC90DB014C9109
:102FF00050E05D292115310599F04830510580F4E4
:10300000A82FB92F8D9188838A2F9B2F21503109AA
:103010004F5F5F4F2115310519F04830510591F789
:10302000AF2D4830510509F0AE2D40814E774083D9
:103030002115310529F6A111C3CFD0CF8091070703
:10304000882381F0853081F0808183FD0FC08081ED
:1030500082FFF4CF80E00BC082E009C083E007C0AC
:1030600081E005C082E003C083E001C081E0DF9120
:10307000CF911F910F91FF90EF90DF900895CF9225
:10308000DF92FF920F931F93CF93DF9320910E0750
:1030900030910F072617370758F06115710539F47D
:1030A000E8EEF0E020812E7720839B0101C09B0198
:1030B000E82FF92F10E0A8EEB0E063EF70E042EFE8
:1030C00050E00F2EF1EFCF2ED12CF02D01E0F12C9E
:1030D00034C080910707882309F443C0853009F480
:1030E00042C08C9183FD41C08C9182FF03C0E8EE09
:1030F000F0E032C08C9180FF20C0EB011881EA0122
:10310000888190E0912B2115310581F0883091055F
:1031100068F41491E6011883319621503109019623
:103120002115310519F08830910599F7102F08976E
:1031300009F01F2D8C918E778C932115310549F65E
:103140001111C7CFD4CF80910707882381F0853034
:1031500081F0808183FD0FC0808182FFF4CF80E009
:103160000BC082E009C083E007C081E005C082E0B7
:1031700003C083E001C081E0DF91CF911F910F91E7
:10318000FF90DF90CF9008958F929F92BF92CF9241
:10319000DF92EF92FF920F931F93CF93DF938730CD
:1031A00070F126C0592F5F70E8015883891731F0FC
:1031B000E901D8805081E401788103C05B2DD62ECF
:1031C0007C2D51FF12C04C914E7F4C9340814D7F1E
:1031D00040834C9141604C93E901D8825083E401D3
:1031E0007883E7015881552344F49F5F9730D1F6E7
:1031F0008F708093E90081E01FC080E01DC0982F90
:103200009F709093E900982F542FD62E70E0ABEE6C
:10321000B0E0EDEEF0E02CEE30E00F2EF0EF8F2E70
:10322000912CF02D0F2EFEEEEF2EF12CF02D09EE4D
:1032300010E0B42EC12CC5CFDF91CF911F910F911B
:10324000FF90EF90DF90CF90BF909F908F90089568
:10325000BF92CF92DF92EF92FF920F931F93CF9383
:10326000DF93062F662309F441C0C82FD92F10E041
:10327000F12C6894DD24D3F8E12C6894BB24B1F8D8
:103280000F2EF6E0CF2EF02D5881552351F19C8161
:10329000E981FA817B81852F8F70873048F59230E4
:1032A00010F04C2D01C04B2DE930F10550F02D2DC3
:1032B0003E2D9F2D9F5F220F331F2E173F07D0F308
:1032C00001C09F2D9295907F492B551F5527551F63
:1032D00090E4799F90011124652F622B55DF88239C
:1032E00051F01F5F25961013CFCF04C081E003C0BB
:1032F00080E001C081E0DF91CF911F910F91FF909D
:10330000EF90DF90CF90BF900895809108078823B9
:103310001CF0E8EEF0E014C0E8EEF0E004C08091AC
:1033200007078823A9F0808182FFF9CFE8EEF0E05B
:1033300080818B778083089580910707882341F0EF
:10334000808180FFF9CFE8EEF0E080818E77808386
:1033500008950F931F93CF93DF932091E400309152
:10336000E50065E6ACEEB0E0E8EEF0E00BEE10E074
:1033700044EE50E08C9180FD21C024C0809107076D
:10338000882381F0853081F0E801888185FD0EC0B9
:10339000EA01888199812817390761F3615041F06A
:1033A0009C01E8CF82E012C083E010C081E00EC033
:1033B00084E00CC080E00AC080E008C0808180FF0B
:1033C000DDCFF8CF808182FFD9CFF6CFDF91CF91CB
:1033D0001F910F9108950F931F93CF93DF934CD0BC
:1033E00053D0C8EDD0E088818F778883888180684A
:1033F000888388818F7D888319BC1092070710927B
:103400000307109205071092040700EE10E0F80180
:1034100080818B7F808388818160888342E060E047
:1034200080E0B2DEE1EEF0E080818E7F8083E2EE2C
:10343000F0E0808181608083808188608083F801F2
:1034400080818E7F8083888180618883DF91CF91A6
:103450001F910F910895E8EDF0E080818F7E8083C9
:10346000E7EDF0E080818160808384E082BF81E0CD
:1034700080930607B0CF0895E8EDF0E080818E7F5D
:1034800080831092E20008951092DA001092E10019
:1034900008951F920F920FB60F9211242F933F930E
:1034A0004F935F936F937F938F939F93AF93BF934C
:1034B000EF93FF938091E10082FF0BC08091E200C7
:1034C00082FF07C0E1EEF0E080818B7F80830E9465
:1034D000290D8091DA0080FF1FC08091D80080FF05
:1034E0001BC0EAEDF0E080818E7F80838091D9005F
:1034F00080FF0DC080E189BD82E189BD09B400FE75
:10350000FDCF81E0809307070E941C0D05C019BC08
:10351000109207070E941D0D8091E10080FF16C0E8
:103520008091E20080FF12C0E2EEF0E080818E7FA9
:103530008083808180618083E8EDF0E0808180621B
:10354000808319BC85E080930707D5D18091E10085
:1035500084FF2FC08091E20084FF2BC080E189BDF1
:1035600082E189BD09B400FEFDCFE8EDF0E0808185
:103570008F7D8083E1EEF0E080818F7E8083E2EEBC
:10358000F0E080818F7E8083808181608083809164
:103590000307882321F084E08093070709C0809106
:1035A000E300882314F483E001C081E080930707DF
:1035B000A2D18091E10083FF1EC08091E20083FFD1
:1035C0001AC0E1EEF0E08081877F808382E0809303
:1035D00007071092030780818E7F8083E2EEF0E080
:1035E00080818E7F808380818061808342E060E083
:1035F00080E0CADD80D1FF91EF91BF91AF919F91A3
:103600008F917F916F915F914F913F912F910F908B
:103610000FBE0F901F9018950F931F93CF93DF93BA
:10362000CDB7DEB7AA970FB6F894DEBF0FBECDBFF9
:10363000E8E0F7E080E197E0A1EFB0E02C91219382
:10364000E817F907D9F70E94280D8091E80083FF59
:103650002DC19091080780910907853009F478C041
:1036600030F48130B1F168F0833099F11FC18830B6
:1036700009F4E9C0893009F4F6C0863009F016C1B2
:103680008AC0903821F0923809F010C108C08091AA
:10369000040790910507992371F082600CC0809116
:1036A0000C078F70E9EEF0E080838091EB0085FBE2
:1036B000882780F91082E8EEF0E09081977F908370
:1036C000A1EFB0E08C931C9280818E7780831DDE09
:1036D000EDC0992309F4F9C0923009F0E7C0FAC0AF
:1036E00091E0833009F090E09093050728C0209185
:1036F0000C072F7009F4DAC02093E9008091EB00E9
:1037000080FF1DC080910907833031F4EBEEF0E0BB
:1037100080818062808313C0EBEEF0E08081806165
:10372000808381E090E002C0880F991F2A95E2F71C
:10373000AAEEB0E08C931C92808188608083109206
:10374000E900E8EEF0E08081877F8083DEDDAEC0B7
:103750009111ACC010910A071F77E3EEF0E0808171
:103760008078812B8083E8EEF0E08081877F808302
:10377000CCDDE8EEF0E0808180FFFDCFE3EEF0E00D
:10378000808180688083112311F083E001C082E092
:10379000809307078BC09058923008F087C08091C3
:1037A0000A0790910B078C3D23E0920799F583E07F
:1037B0008A838AE289835FB7F894DE01139620E05A
:1037C0003EE041E2E32FF0E040935700849120FF78
:1037D00003C082958F703F5F8F708A3018F090E041
:1037E000C79602C090E0C0968D939D932F5F2431C1
:1037F00049F75FBF08EE10E0F8018081877F808382
:103800006AE270E0CE010196B5DBF80180818B772A
:1038100080834CC0AE014F5F5F4F60910C070E94E8
:10382000C50C009709F442C008EE10E0F8012081B1
:10383000277F2083BC0189819A8121DCF801808166
:103840008B77808333C0903889F5E8EEF0E0808193
:10385000877F8083809103078093F10080818E773A
:10386000808353DD23C0911121C080910A078230EB
:10387000E8F4E8EEF0E08081877F808380910A079A
:103880008093030742DD80910307882321F084E0C1
:103890008093070709C08091E300882314F484E033
:1038A00001C081E0809307070E941E0D8091E8000F
:1038B00083FF16C0E8EEF0E08081877F8083EBEE27
:1038C000F0E08081806280830BC090910A07913084
:1038D00069F706CF80910A07882309F408CF2FCF14
:1038E000AA960FB6F894DEBF0FBECDBFDF91CF9181
:1038F0001F910F9108950895CF9380910707882312
:10390000A1F0C091E900CF708091EC0080FF02C06F
:1039100080E801C080E0C82B1092E9008091E800A7
:1039200083FD7ADECF70C093E900CF910895F999B5
:10393000FECF92BD81BDF89A992780B50895262FB4
:10394000F999FECF1FBA92BD81BD20BD0FB6F89484
:0E395000FA9AF99A0FBE01960895F894FFCFE7
:10395E000000000182400000010140000001000152
:10396E000868017C019601AB01C301E101FB011D59
:10397E00023A0259028102A402D1020000000000A4
:10398E00000000000000000000010203040506070D
:10399E0008090A0B101112131415161718191A1BF1
:1039AE00202122232425262728292A2B3031323381
:1039BE003435363738393A3B404142434445464721
:1039CE0048494A4B505152535455565758595A5BC1
:1039DE00606162636465666768696A6B7071727351
:1039EE007475767778797A7B8081828384858687F1
:0C39FE0088898A8B909192939495000028
:00000001FF
